:020000040800F2
:1000000000100020CD0400086D04000879040008E9
:100010007F040008850400088B040008000000002D
:100020000000000000000000000000009104000833
:100030009D04000800000000A9040008B5040008A1
:100040001505000815050008150500081505000828
:100050001505000815050008150500081505000818
:100060001505000815050008150500081505000808
:1000700015050008150500081505000815050008F8
:10008000150500081505000815050008000000000A
:10009000000000000000000000000000150500083E
:1000A00015050008150500081505000815050008C8
:1000B00015050008150500081505000815050008B8
:1000C00015050008000000000000000015050008EC
:1000D0001505000815050008150500081505000898
:1000E00015050008150500081505000800000000AA
:1000F0000000000000000000000000000000000000
:1001000000000000000000000000000000000000EF
:10011000000000000000000015050008150500089B
:1001200000000000000000000000000000000000CF
:1001300000000000000000000000000000000000BF
:1001400000000000000000000000000000000000AF
:10015000000000000000000000000000000000009F
:10016000000000000000000000000000000000008F
:10017000000000000000000000000000000000007F
:10018000000000000000000000000000000000006F
:10019000000000000000000000000000000000005F
:1001A000000000000000000000000000000000004F
:1001B000000000000000000000000000000000003F
:1001C0000000000000000000000000005FF808F1DF
:1001D00010B5054C237833B9044B13B10448AFF381
:1001E00000800123237010BD0C00002000000000DF
:1001F0008412000808B5034B1BB103490348AFF351
:10020000008008BD000000001000002084120008DB
:1002100080B582B000AF00F07EF900F014F800F075
:100220004DF80023FB710AE0FB79184600F078F8DE
:100230004FF4FA7000F0C8F9FB790133FB71FB79D8
:10024000102BF1D9EDE780B590B000AF07F118039E
:1002500028220021184601F00DF83B1D00221A60EB
:100260005A609A60DA601A610223BB610123BB62A3
:100270001023FB6200237B6307F11803184600F08C
:100280001BFC0346002B01D000F0B8F80F237B6065
:100290000023BB600023FB6000233B6100237B61E4
:1002A0003B1D0021184600F087FE0346002B01D0BD
:1002B00000F0A4F800BF4037BD4680BD80B586B0D1
:1002C00000AF07F1080300221A605A609A60DA60F2
:1002D000114B9B69104A43F0040393610E4B9B69D9
:1002E00003F004037B607B6800227F210B4800F051
:1002F000CBFB7F23BB600123FB6000233B61022318
:100300007B6107F108031946044800F063FA00BF57
:100310001837BD4680BD00BF0010024000080140F4
:1003200090B589B000AF0346FB71324B07F10C0466
:100330000FCB84E80F00FB79013B07F12002134447
:1003400013F8143CFB77FB7F03F00103BB77BB7F03
:100350001A460121284800F097FBFB7F5B08DBB2BF
:1003600003F00103BB77BB7F1A460221224800F04D
:100370008BFBFB7F9B08DBB203F00103BB77BB7FEA
:100380001A4604211C4800F07FFBFB7FDB08DBB230
:1003900003F00103BB77BB7F1A460821164800F023
:1003A00073FBFB7F1B09DBB203F00103BB77BB7F51
:1003B0001A461021104800F067FBFB7F5B09DBB297
:1003C00003F00103BB77BB7F1A4620210A4800F0E7
:1003D0005BFBFB7F9B09DBB203F00103BB77BB7FB9
:1003E0001A464021044800F04FFB00BF2437BD46A9
:1003F00090BD00BF9C1200080008014080B400AF0F
:1004000000BFBD4680BC704780B485B000AF154BBF
:100410009B69144A43F001039361124B9B6903F0FB
:100420000103BB60BB680F4BDB690E4A43F080538E
:10043000D3610C4BDB6903F080537B607B680A4B14
:100440005B68FB60FB6823F0E063FB60FB6843F0E4
:100450008063FB60044AFB68536000BF1437BD46ED
:1004600080BC7047001002400000014080B400AF23
:1004700000BFBD4680BC704780B400AFFEE780B4CB
:1004800000AFFEE780B400AFFEE780B400AFFEE748
:1004900080B400AF00BFBD4680BC704780B400AFE1
:1004A00000BFBD4680BC704780B400AF00BFBD46F2
:1004B00080BC704780B500AF00F06AF800BF80BD17
:1004C00080B400AF00BFBD4680BC70470C480D49EA
:1004D0000D4A002302E0D458C4500433C4188C429F
:1004E000F9D30A4A0A4C002301E013600432A24205
:1004F000FBD3FFF7E5FF00F099FEFFF789FE704799
:10050000000000200C000020E41200080C00002075
:100510002C000020FEE780B500AF032000F026F994
:10052000002000F005F8FFF76FFF0023184680BD9C
:1005300080B582B000AF7860124B1A68124B1B78FE
:1005400019464FF47A73B3FBF1F3B2FBF3F3184699
:1005500000F033F90346002B01D001230EE07B6845
:100560000F2B0AD8002279684FF0FF3000F009F90C
:10057000064A7B681360002300E001231846083711
:10058000BD4680BD000000200800002004000020BF
:1005900080B400AF054B1B781A46054B1B6813440B
:1005A000034A136000BFBD4680BC704708000020AE
:1005B0002800002080B400AF024B1B681846BD46DF
:1005C00080BC70472800002080B584B000AF786000
:1005D000FFF7F0FFB8607B68FB60FB68B3F1FF3F9B
:1005E00005D0094B1B781A46FB681344FB6000BF1B
:1005F000FFF7E0FF0246BB68D31AFA689A42F7D8C1
:1006000000BF1037BD4680BD0800002080B485B013
:1006100000AF78607B6803F00703FB600C4BDB687E
:10062000BB60BA684FF6FF031340BB60FB681A0259
:10063000BB68134343F0BF6343F40033BB60044A19
:10064000BB68D36000BF1437BD4680BC704700BF95
:1006500000ED00E080B400AF044BDB681B0A03F040
:1006600007031846BD4680BC704700BF00ED00E0A0
:1006700080B483B000AF03463960FB7197F907304F
:10068000002B0ADB3B68DAB20C4997F907301201FC
:10069000D2B20B4483F800230AE03B68DAB208497F
:1006A000FB7903F00F03043B1201D2B20B441A761C
:1006B00000BF0C37BD4680BC704700BF00E100E0C2
:1006C00000ED00E080B489B000AFF860B9607A60F6
:1006D000FB6803F00703FB61FB69C3F10703042B0D
:1006E00028BF0423BB61FB690433062B02D9FB69D5
:1006F000033B00E000237B614FF0FF32BB6902FA4D
:1007000003F3DA43BB681A407B699A404FF0FF312C
:100710007B6901FA03F3D9437B680B401343184606
:100720002437BD4680BC704780B582B000AF78608A
:100730007B68013BB3F1807F01D301230FE00A4ABC
:100740007B68013B53600F214FF0FF30FFF790FFB4
:10075000054B00229A60044B07221A6000231846BA
:100760000837BD4680BD00BF10E000E080B582B014
:1007700000AF78607868FFF749FF00BF0837BD46D3
:1007800080BD80B586B000AF0346B9607A60FB7368
:1007900000237B61FFF75EFF78617A68B96878694A
:1007A000FFF790FF024697F90F3011461846FFF702
:1007B0005FFF00BF1837BD4680BD80B582B000AF77
:1007C00078607868FFF7B0FF034618460837BD46E3
:1007D00080BD000080B48BB000AF7860396000232A
:1007E0007B6200233B6227E101227B6A02FA03F36A
:1007F000FB613B681B68FA691340BB61BA69FB691E
:100800009A4240F016813B685B68122B34D0122B61
:100810000DD8022B2BD0022B04D8002B31D0012B6A
:100820001CD048E0032B43D0112B1BD043E0894A56
:10083000934226D0874A934206D8874A934220D0D3
:10084000864A93421DD036E0854A934219D0854AA4
:10085000934216D0844A934213D02CE03B68DB6865
:100860003B6228E03B68DB6804333B6223E03B6883
:10087000DB6808333B621EE03B68DB680C333B629D
:1008800019E03B689B68002B02D104233B6212E015
:100890003B689B68012B05D108233B627B68FA69A2
:1008A0001A6108E008233B627B68FA695A6102E03A
:1008B00000233B6200BFBB69FF2B01D87B6801E0CE
:1008C0007B6804337B61BB69FF2B02D87B6A9B008A
:1008D00002E07B6A083B9B003B617B691A680F2141
:1008E0003B6901FA03F3DB431A40396A3B6901FAB9
:1008F00003F31A437B691A603B685B6803F080531B
:10090000002B00F09680594B9B69584A43F0010335
:100910009361564B9B6903F00103BB60BB68544A6B
:100920007B6A9B08023352F82330FB607B6A03F03A
:1009300003039B000F2202FA03F3DB43FA68134020
:10094000FB607B684B4A934213D07B684A4A9342D0
:100950000DD07B68494A934207D07B68484A93424E
:1009600001D1032306E0042304E0022302E0012373
:1009700000E000237A6A02F0030292009340FA68D2
:100980001343FB603A497B6A9B080233FA6841F8DB
:1009900023203B685B6803F48033002B06D0394B7F
:1009A0001A683849BB6913430B6006E0354B1A6877
:1009B000BB69DB43334913400B603B685B6803F45E
:1009C0000033002B06D02F4B5A682E49BB691343C6
:1009D0004B6006E02B4B5A68BB69DB432949134047
:1009E0004B603B685B6803F48013002B06D0254BFB
:1009F0009A682449BB6913438B6006E0214B9A68CF
:100A0000BB69DB431F4913408B603B685B6803F4A1
:100A10000013002B06D01B4BDA681A49BB6913433D
:100A2000CB6006E0174BDA68BB69DB43154913401E
:100A3000CB607B6A01337B623B681A687B6A22FA6F
:100A400003F3002B7FF4D0AE00BF2C37BD4680BC33
:100A5000704700BF000021100000111000001210AC
:100A6000000031100000321000002210001002407F
:100A70000000014000080140000C0140001001404E
:100A8000001401400004014080B483B000AF7860DE
:100A90000B467B8013467B707B78002B03D07A88D3
:100AA0007B681A6103E07B881A047B681A6100BFC7
:100AB0000C37BD4680BC704780B586B000AF78600B
:100AC0007B68002B01D101236CE27B681B6803F07B
:100AD0000103002B00F08780924B5B6803F00C034E
:100AE000042B0CD08F4B5B6803F00C03082B12D146
:100AF0008C4B5B6803F48033B3F5803F0BD1894B9B
:100B00001B6803F40033002B6CD07B685B68002B00
:100B100068D1012346E27B685B68B3F5803F06D16C
:100B2000804B1B687F4A43F4803313602EE07B6860
:100B30005B68002B0CD17B4B1B687A4A23F4803313
:100B40001360784B1B68774A23F4802313601DE001
:100B50007B685B68B3F5A02F0CD1724B1B68714AA0
:100B600043F4802313606F4B1B686E4A43F4803359
:100B700013600BE06B4B1B686A4A23F480331360ED
:100B8000684B1B68674A23F4802313607B685B68AB
:100B9000002B13D0FFF70EFD386108E0FFF70AFDC8
:100BA00002463B69D31A642B01D90323FAE15D4B5A
:100BB0001B6803F40033002BF0D014E0FFF7FAFCBD
:100BC000386108E0FFF7F6FC02463B69D31A642B54
:100BD00001D90323E6E1534B1B6803F40033002BD8
:100BE000F0D100E000BF7B681B6803F00203002B1C
:100BF00063D04C4B5B6803F00C03002B0BD0494BCC
:100C00005B6803F00C03082B1CD1464B5B6803F4B4
:100C10008033002B16D1434B1B6803F00203002BDB
:100C200005D07B681B69012B01D00123BAE13D4B44
:100C30001B6823F0F8027B685B69DB0039491343CA
:100C40000B603AE07B681B69002B20D0364B0122F9
:100C50001A60FFF7AFFC386108E0FFF7ABFC024613
:100C60003B69D31A022B01D903239BE12D4B1B684F
:100C700003F00203002BF0D02A4B1B6823F0F8028C
:100C80007B685B69DB00274913430B6015E0264B4B
:100C900000221A60FFF78EFC386108E0FFF78AFC3B
:100CA00002463B69D31A022B01D903237AE11D4B7B
:100CB0001B6803F00203002BF0D17B681B6803F074
:100CC0000803002B3AD07B689B69002B19D0174B87
:100CD00001221A60FFF76EFC386108E0FFF76AFC3A
:100CE00002463B69D31A022B01D903235AE10D4B6B
:100CF0005B6A03F00203002BF0D0012000F078FAC9
:100D00001CE00A4B00221A60FFF754FC38610FE028
:100D1000FFF750FC02463B69D31A022B08D9032384
:100D200040E100BF00100240000042428004424205
:100D30009E4B5B6A03F00203002BE9D17B681B68C2
:100D400003F00403002B00F0A6800023FB75974BF3
:100D5000DB6903F08053002B0DD1944BDB69934A80
:100D600043F08053D361914BDB6903F08053BB6048
:100D7000BB680123FB758E4B1B6803F48073002B4B
:100D800018D18B4B1B688A4A43F480731360FFF7BA
:100D900011FC386108E0FFF70DFC02463B69D31AED
:100DA000642B01D90323FDE0814B1B6803F480739E
:100DB000002BF0D07B68DB68012B06D17B4B1B6AD4
:100DC0007A4A43F0010313622DE07B68DB68002B55
:100DD0000CD1764B1B6A754A23F001031362734BE7
:100DE0001B6A724A23F0040313621CE07B68DB6811
:100DF000052B0CD16D4B1B6A6C4A43F00403136244
:100E00006A4B1B6A694A43F0010313620BE0674BAC
:100E10001B6A664A23F001031362644B1B6A634A30
:100E200023F0040313627B68DB68002B15D0FFF707
:100E3000C1FB38610AE0FFF7BDFB02463B69D31AEC
:100E400041F28832934201D90323ABE0574B1B6A2E
:100E500003F00203002BEED014E0FFF7ABFB386188
:100E60000AE0FFF7A7FB02463B69D31A41F288323A
:100E7000934201D9032395E04C4B1B6A03F0020314
:100E8000002BEED1FB7D012B05D1484BDB69474A96
:100E900023F08053D3617B68DB69002B00F08180F5
:100EA000424B5B6803F00C03082B61D07B68DB6965
:100EB000022B46D13F4B00221A60FFF77BFB3861C3
:100EC00008E0FFF777FB02463B69D31A022B01D9F2
:100ED000032367E0354B1B6803F00073002BF0D150
:100EE0007B681B6AB3F5803F08D1304BDB6A23F087
:100EF0000F027B689B682D491343CB622B4B5B68C9
:100F000023F474127B68196A7B685B6A0B43274978
:100F100013434B60274B01221A60FFF74BFB3861EC
:100F200008E0FFF747FB02463B69D31A022B01D9C1
:100F3000032337E01D4B1B6803F00073002BF0D038
:100F40002FE01C4B00221A60FFF734FB386108E0E9
:100F5000FFF730FB02463B69D31A022B01D903236A
:100F600020E0124B1B6803F00073002BF0D118E057
:100F70007B68DB69012B01D1012313E00B4B5B681C
:100F8000FB60FB6803F480327B681B6A9A4206D1DF
:100F9000FB6803F470127B685B6A9A4201D00123FC
:100FA00000E0002318461837BD4680BD00100240FF
:100FB000007000406000424280B584B000AF7860AD
:100FC00039607B68002B01D10123A0E07B681B689E
:100FD00003F00203002B20D07B681B6803F004039E
:100FE000002B05D04C4B5B684B4A43F4E0635360E5
:100FF0007B681B6803F00803002B05D0464B5B6839
:10100000454A43F460535360434B5B6823F0F0025E
:101010007B689B68404913434B607B681B6803F007
:101020000103002B40D07B685B68012B07D13A4B52
:101030001B6803F40033002B15D1012367E07B68A4
:101040005B68022B07D1344B1B6803F00073002B45
:1010500009D101235BE0304B1B6803F00203002B36
:1010600001D1012353E02C4B5B6823F003027B6822
:101070005B68294913434B60FFF79CFAF8600AE06C
:10108000FFF798FA0246FB68D31A41F2883293427E
:1010900001D903233BE0204B5B6803F00C027B6823
:1010A0005B689B009A42EBD17B681B6803F00403EA
:1010B000002B08D0184B5B6823F4E0627B68DB6888
:1010C000154913434B607B681B6803F00803002B32
:1010D00009D0114B5B6823F460527B681B69DB000D
:1010E0000D4913434B6000F01FF801460A4B5B6843
:1010F0001B0903F00F03094AD35C21FA03F3084AE2
:101100001360084B1B681846FFF712FA00231846B5
:101110001037BD4680BD00BF00100240CC12000851
:10112000000000200400002090B48EB000AF2B4BD4
:1011300007F114040FCB84E80F00294B3C1D0FCBA3
:1011400084E80F000023FB620023BB6200237B6363
:1011500000237B6200233B63224B5B68FB62FB6ADC
:1011600003F00C03042B02D0082B03D02CE01E4B01
:101170003B632CE0FB6A9B0C03F00F0307F1380282
:10118000134413F8243C7B62FB6A03F48033002B86
:1011900012D0144BDB6A03F00F0307F1380213443B
:1011A00013F8343CBB627B6A0F4A02FB03F2BB6A52
:1011B000B2FBF3F37B6304E07B6A0C4A02FB03F3AC
:1011C0007B637B6B3B6302E0074B3B6300BF3B6B86
:1011D00018463837BD4690BC704700BFAC120008B7
:1011E000BC1200080010024000127A0000093D0005
:1011F00080B485B000AF78600A4B1B680A4AA2FB36
:1012000003235B0A7A6802FB03F3FB6000BFFB6801
:101210005A1EFA60002BF9D100BF1437BD4680BCBE
:10122000704700BF00000020D34D621070B500254C
:101230000C4E0D4CA41BA410A54209D100F022F8BD
:1012400000250A4E0A4CA41BA410A54205D170BD6E
:1012500056F8253098470135EEE756F8253098477F
:101260000135F2E7DC120008DC120008DC1200088D
:10127000E012000803460244934200D1704703F88D
:10128000011BF9E7F8B500BFF8BC08BC9E467047E3
:0C129000F8B500BFF8BC08BC9E467047D3
:10129C003F065B4F666D7D077F6F777C395E79719A
:1012AC0002030405060708090A0B0C0D0E0F10109B
:1012BC000102030405060708090A0B0C0D0E0F109A
:1012CC0000000000000000000102030406070809EA
:0412DC00F501000810
:0412E000D101000830
:0C12E4000024F4001000000001000000D5
:04000005080004CD1E
:00000001FF
